:1000000006308A00252E0000FF00030E8301A100A8
:100010000A08A0008A010408A2007708A300780853
:10002000A4007908A5007A08A60003170D08031399
:10003000A70003170F080313A80003170C080313E6
:10004000A90003170E080313AA00831383128C3030
:100050008400801E2D288C1A4E2822088400230834
:10006000F7002408F8002508F9002608FA002708F8
:1000700003178D000313280803178F0003132908A3
:1000800003178C0003132A0803178E00031320089C
:100090008A00210E8300FF0E7F0E09008A110A12CA
:1000A00059280A108A100A11820728340C340134A6
:1000B00006348C128A110A122D28C4272027C8243E
:1000C000452A20224F10CC26B31A00004E24C92204
:1000D0005410C427BA122E18660043004E24C922B9
:1000E0005410C427BA122E18E606000045308400CA
:1000F0008313000803198A280130F800F701F70B71
:100100007F28F80B7E284A30F700F70B85288828CF
:10011000800B7C2808004C188F280812902808169D
:10012000831608128312CC189728881298288816EC
:100130008316881283124C199F280813A0280817C9
:10014000831608138312CC19A7288813A8288817A8
:100150008316881300008312881583168811B0282F
:10016000831288118316881183120800CD0183162B
:10017000081600308312081A0130CD048316881641
:1001800000308312881A0130F7000310F70D77084A
:10019000CD048316081700308312081B0130F700C6
:1001A000F70DF70DFC30F7057708CD048316881797
:1001B00000308312881B0130F700F70DF70DF70DA3
:1001C000F830F7057708CD044D08F80008008810CE
:1001D00083168810081688160817881783120815C2
:1001E00083160811000083128815831688110000F9
:1001F0008312B6207808CC0088118316881100007D
:10020000831288158316881100008312B62078089F
:10021000CB008811831688110812881208138813DE
:1002200083124C0EF700F030F70577084B04F80006
:100230007808CB00CB1F1E298316EA28C908031DA6
:10024000232988102429881483168810000083121B
:100250000811831608110000831288118316881173
:1002600083124A0ECB000F30CB054B08CC008B20FD
:100270004A080F39CB00CC008B20080083160812E7
:1002800088120813881388118810081183128810A7
:10029000831688108312081183160811831288119F
:1002A000831688110F308312C50076200130B70005
:1002B0003708033C031C64290330CC008B20053035
:1002C000C5007620B70A58290230CC008B20B70130
:1002D0003708033C031C752937085120B800C901B1
:1002E0003808CA00E720B70A68298A110A124F2E77
:1002F000460B7C29C70190294608023C031D83292F
:100300004030C70090294608033C031D8A29143059
:10031000C70090294608043C031D90295430C700AB
:1003200001304502C70747088038C800C90148089E
:10033000CA00E720080044080C3A0319A629063A27
:100340000319AE29023A0319B429B929C9010130A8
:10035000CA00E7200230C5007620BE290130C50062
:100360000230C6007821BE29C9011030CA00E7203A
:10037000BE290130C9004408CA00E72008000B0864
:10038000B7008B13831603178C170C1400000000A2
:1003900083120313B71B8B1703170C087F3903193C
:1003A000132A0313B70003170D080313B80003172C
:1003B0000F080313B9003708C4009B21380803173E
:1003C0008D000313390803178F0003130B08BA00BD
:1003D0008B13831603178C170C1400000000831274
:1003E0000313BA1B8B1703170C0D0E0D7F3903195E
:1003F000132A0313B70003170D080313B8000317DC
:100400000F080313B9003708C4009B2138080317ED
:100410008D000313390803178F008D0A03198F0A03
:100420000313BF290317031308008E30F7003808A1
:10043000F8003708F900FA01F808031D292A79089D
:10044000F800F9010830F702F808031D292AF7011E
:10045000312A0310F81B302AF90DF80DF703292A69
:10046000F8138A110A12692E44080319A42ACC0031
:1004700048080319A42ACC070318452A7F30CC0268
:10048000031CA42A0319A42A492A8130CC07031883
:10049000A42A4C08F700F801F901FA014508D00038
:1004A000D0174608CF004708CE001830CC00CD0149
:1004B0004E1C722A4B08FA07031C642AF90A031D12
:1004C000642AF80A0319CD174A08F907031C6B2A96
:1004D000F80A0319CD174908C600C6174608F807D9
:1004E0000318CD17CD0DF80CF90CFA0CD00CCF0C6D
:1004F000CE0C0310CC0B572A0130F7070318A42A9F
:10050000F81B892AD00DFA0DF90DF80DF703031920
:10051000A42AD01F9A2AFA0A031D9A2AF90A031D4F
:100520009A2AF80A031D9A2AF80CF90CFA0CF70A11
:100530000319A42A4508CD004908CD06CD1FA22ADB
:10054000F817A82AF813A82AF701F801F901FA0107
:1005500008003B0803196E2BC7003F0803196E2BD8
:10056000C702031CB82A7F30C70703186E2BBE2AA8
:100570008130C702031C6E2B03196E2B4708F7004E
:10058000F801F901FA01C6013C08C500C5173D088C
:10059000C4003E08C3001930C7004208C302031854
:1005A000E12A0130C4020318E12AC5020318E12A36
:1005B000C6020318E12AC60AC50AC40A4208C307CC
:1005C000132B4108C4020318FC2A0130C50203188A
:1005D000FC2AC6020318FC2AC60AC50A4108C40739
:1005E0004208C307031C132BC40A031D132BC50A9F
:1005F000031D132BC60A132B40088038C5020318AD
:10060000122B0130C6020318122BC60A400880388C
:10061000C5074108C407031CF02AC50A031DF02AB8
:10062000C60AF02A7A14C70B162B212B0310C30D10
:10063000C40DC50DC60D0310FA0DF90DF80DC80D4A
:10064000CD2A481C292B0310F80CF90CFA0CC80C05
:100650002C2BF70303196E2BC81B552B0310C30D4E
:10066000C40DC50DC60D4208C3020318412B01304D
:10067000C4020318412BC5020318412BC602031CF8
:10068000642B4108C40203184C2B0130C502031827
:100690004C2BC602031C642B40088038C50203188B
:1006A000552B0130C602031C642BFA0A031D642B70
:1006B000F90A031D642BF80A031D642BF70A0319BA
:1006C0006E2BF80CF90CFA0C3C08C7004008C70662
:1006D000C71F6C2BF817722BF813722BF701F80158
:1006E000F901FA018A110A12982E0B08B8008B132F
:1006F000831603178C170C140000000083120313D9
:10070000B81B8B170318AC2B03170C087F39031386
:10071000B80003170D080313B90003170F080313DC
:10072000BA003808C4009B21390803178D00031351
:100730003A0803178F0003130B08BB008B138316B3
:1007400003178C170C140000000083120313BB1B4B
:100750008B17B70BAC2BCB2B03170C0D0E0D7F3962
:100760000313B80003170D080313B90003170F088C
:100770000313BA003808C4009B21390803178D0001
:1007800003133A0803178F008D0A03198F0A031009
:100790000313B70B752B8A110A12C62E4408B63CF8
:1007A000C400FA014508C800C5170310C50CC60CE3
:1007B000C70CFA0CF90CF80CF70CC40BD52BC81F9E
:1007C000EC2BF709F809F909FA09F70A0319F80AED
:1007D0000319F90A0319FA0A08008318F22B4C309E
:1007E00084008313F701F801F901FA01CC01CD016E
:1007F000CE01CF014B084A04490448040319302CA8
:100800002030D0000310C40DC50DC60DC70DCC0D92
:10081000CD0DCE0DCF0D4B084F02031D192C4A08EC
:100820004E02031D192C49084D02031D192C4808BE
:100830004C02031C2A2C4808CC024908031C490F0F
:10084000CD024A08031C4A0FCE024B08031C4B0F73
:10085000CF020314F70DF80DF90DFA0DD00B022C91
:100860004C088000840A4D088000840A4E088000ED
:10087000840A4F08800008000408BC003B08BE0042
:1008800003195B2C3A08C7003908C6003808C500B0
:100890003708C400CB01CA012030C9008230C8002B
:1008A00034227A08BA007908B9007808B8007708C5
:1008B000B700BE0B422C3A08C7003908C6003808FA
:1008C000C5003708C400CE237A08BA007908B900F9
:1008D0007808B8007708B700BA1F7B2CBC03BC1699
:1008E000B709B809B909BA09B70A0319B80A031947
:1008F000B90A0319BA0A3B30C3009A30C200CA30A1
:10090000C100C0010A30BE003B080319BC0A8314B1
:100910003730840083133A08C7003908C600380806
:10092000C5003708C4004308CB004208CA0041088C
:10093000C9004008C800ED237808F708031DB32C50
:100940003B0A3E020319B32C3C080319B52C0F399E
:100950003E020319AD2C0318E52CBC1BE52C3C1BF7
:10096000B52C2030E12C2030BC05BC1EC32CBC12A1
:100970003B08031DBC037708BC002D30C4009B213D
:100980003C08F700BC013B083E02031DD12C770850
:10099000BC002E30C4009B213C08F7002030BC0571
:1009A00000303030BC1EE12CBC123B08031DBC03E0
:1009B0007708BC002D30C4009B213C08F700BC0127
:1009C0003030F7077708C4009B2183104308C70025
:1009D0004208C6004108C5004008C400CB01CA0156
:1009E000C9010A30C800ED237A08C3007908C200A3
:1009F0007808C1007708C000BE0B872C8A110A1244
:100A0000D22E0B08B8008B13831603178C170C1407
:100A10000000000083120313B81B8B170318392D35
:100A200003170C087F390313B80003170D080313CD
:100A3000B90003170F080313BA0038080C1E1E2D47
:100A40009900390803178D0003133A0803178F0024
:100A500003130B08BB008B13831603178C170C149E
:100A60000000000083120313BB1B8B17B70B392D3B
:100A7000592D03170C0D0E0D7F390313B800031702
:100A80000D080313B90003170F080313BA00380841
:100A90000C1E482D9900390803178D0003133A08DE
:100AA00003178F008D0A03198F0A03100313B70B66
:100AB000012D8A110A12E62E0408BC003B08BE0074
:100AC00003197B2D3A08C7003908C6003808C5004D
:100AD0003708C400CB01CA012030C9008230C800E9
:100AE00034227A08BA007908B9007808B800770883
:100AF000B700BE0B622D3A08C7003908C600380897
:100B0000C5003708C400CE237A08BA007908B900B6
:100B10007808B8007708B700BA1F9B2DBC03BC1635
:100B2000B709B809B909BA09B70A0319B80A031904
:100B3000B90A0319BA0A3B30C3009A30C200CA305E
:100B4000C100C0010A30BE003B080319BC0A83146F
:100B50003730840083133A08C7003908C6003808C4
:100B6000C5003708C4004308CB004208CA0041084A
:100B7000C9004008C800ED237808F708031DD32DED
:100B80003B0A3E020319D32D3C080319D52D0F391A
:100B90003E020319CD2D0318092EBC1B092E3C1B48
:100BA000D52D2030042E2030BC05BC1EE42DBC12F7
:100BB0003B08031DBC037708BC002D300C1EDE2D46
:100BC00099003C08F700BC013B083E02031DF32DD1
:100BD0007708BC002E300C1EEB2D99003C08F70066
:100BE0002030BC0500303030BC1E042EBC123B0847
:100BF000031DBC037708BC002D300C1EFD2D990091
:100C00003C08F700BC013030F70777080C1E062EB1
:100C1000990083104308C7004208C6004108C50078
:100C20004008C400CB01CA01C9010A30C800ED2345
:100C30007A08C3007908C2007808C1007708C000AC
:100C4000BE0BA72D8A110A12F22E03081F3983004A
:100C5000193083169900A6309800903083129800BE
:100C600083161F149F141F159F1107309C008313B8
:100C70001F1383121F179F1783169F1783121F14AA
:100C800083161F149F101F159F110030F800831248
:100C90001F08C73978049F00C0308B043E290C30F0
:100CA000C4009B210130C500C60078215D300317C8
:100CB0008D0000308F000313BF211F151F195E2EFA
:100CC0001E08FA0083161E088312B7001E08B8001B
:100CD000152A7A08AE007908AD007808AC007708CC
:100CE000AB002E08C7002D08C6002C08C5002B0835
:100CF000C400CB01CA012030C9008130C8003422B1
:100D00007A08BA007908B9007808B8007708B700FF
:100D10007A08BE007908BD007808BC007708BB00DF
:100D2000C201C030C1007F30C0008830BF00A92A96
:100D30007A08B2007908B1007808B0007708AF00EF
:100D40003208C7003108C6003008C5002F08C400AB
:100D5000CB01CA014830C9008530C80034227A0866
:100D6000B6007908B5007808B4007708B300013000
:100D7000C5000230C6007821663003178D000030B0
:100D80008F00031009300313B700752B89308400DE
:100D90003608BA003508B9003408B8003308B7007F
:100DA000BB013C2CDF30C4009B216D3003178D004C
:100DB00000308F000313BF216E3003178D00003009
:100DC0008F00031009300313B700012D8930840010
:100DD0003608BA003508B9003408B8003308B7003F
:100DE000BB015C2D0D300C1EF32E99000430B700B2
:0E0DF000FA30C5007620B70BF82E5D2E63009A
:02400E00313F40
:00000001FF
;PIC16F877A
;CRC=5C64  CREATED="10-Nov-20 11:14"
